{
  "_format": "hh-sol-artifact-1",
  "contractName": "LotteryToken",
  "sourceName": "contracts/LotteryToken.sol",
  "abi": [
    {
      "inputs": [],
      "stateMutability": "nonpayable",
      "type": "constructor"
    },
    {
      "anonymous": false,
      "inputs": [
        {
          "indexed": false,
          "internalType": "uint256",
          "name": "ticketIndex",
          "type": "uint256"
        },
        {
          "indexed": false,
          "internalType": "address",
          "name": "winner",
          "type": "address"
        },
        {
          "indexed": false,
          "internalType": "uint256",
          "name": "round",
          "type": "uint256"
        },
        {
          "indexed": false,
          "internalType": "bool",
          "name": "isGifted",
          "type": "bool"
        },
        {
          "indexed": false,
          "internalType": "uint256",
          "name": "prizeAmount",
          "type": "uint256"
        },
        {
          "indexed": false,
          "internalType": "uint256",
          "name": "timestamp",
          "type": "uint256"
        }
      ],
      "name": "LotteryResult",
      "type": "event"
    },
    {
      "anonymous": false,
      "inputs": [
        {
          "indexed": false,
          "internalType": "uint256",
          "name": "ticketIndex",
          "type": "uint256"
        },
        {
          "indexed": false,
          "internalType": "address",
          "name": "player",
          "type": "address"
        },
        {
          "indexed": false,
          "internalType": "uint256",
          "name": "round",
          "type": "uint256"
        },
        {
          "indexed": false,
          "internalType": "bool",
          "name": "isGifted",
          "type": "bool"
        },
        {
          "indexed": false,
          "internalType": "uint256",
          "name": "prizeAmount",
          "type": "uint256"
        }
      ],
      "name": "PlayerJoined",
      "type": "event"
    },
    {
      "inputs": [],
      "name": "currentRound",
      "outputs": [
        {
          "internalType": "uint256",
          "name": "",
          "type": "uint256"
        }
      ],
      "stateMutability": "view",
      "type": "function"
    },
    {
      "inputs": [],
      "name": "getMinRoundPlayers",
      "outputs": [
        {
          "internalType": "uint256",
          "name": "",
          "type": "uint256"
        }
      ],
      "stateMutability": "view",
      "type": "function"
    },
    {
      "inputs": [
        {
          "internalType": "address",
          "name": "_recipient",
          "type": "address"
        },
        {
          "internalType": "address",
          "name": "_token",
          "type": "address"
        },
        {
          "internalType": "uint256",
          "name": "_amount",
          "type": "uint256"
        }
      ],
      "name": "giftTicket",
      "outputs": [],
      "stateMutability": "nonpayable",
      "type": "function"
    },
    {
      "inputs": [
        {
          "internalType": "uint256",
          "name": "",
          "type": "uint256"
        }
      ],
      "name": "isGift",
      "outputs": [
        {
          "internalType": "bool",
          "name": "",
          "type": "bool"
        }
      ],
      "stateMutability": "view",
      "type": "function"
    },
    {
      "inputs": [
        {
          "internalType": "address",
          "name": "_token",
          "type": "address"
        },
        {
          "internalType": "uint256",
          "name": "_amount",
          "type": "uint256"
        }
      ],
      "name": "joinLottery",
      "outputs": [],
      "stateMutability": "nonpayable",
      "type": "function"
    },
    {
      "inputs": [],
      "name": "owner",
      "outputs": [
        {
          "internalType": "address",
          "name": "",
          "type": "address"
        }
      ],
      "stateMutability": "view",
      "type": "function"
    },
    {
      "inputs": [
        {
          "internalType": "uint256",
          "name": "",
          "type": "uint256"
        }
      ],
      "name": "players",
      "outputs": [
        {
          "internalType": "address",
          "name": "",
          "type": "address"
        }
      ],
      "stateMutability": "view",
      "type": "function"
    },
    {
      "inputs": [],
      "name": "prizeAmount",
      "outputs": [
        {
          "internalType": "uint256",
          "name": "",
          "type": "uint256"
        }
      ],
      "stateMutability": "view",
      "type": "function"
    },
    {
      "inputs": [],
      "name": "ticketPrice",
      "outputs": [
        {
          "internalType": "uint256",
          "name": "",
          "type": "uint256"
        }
      ],
      "stateMutability": "view",
      "type": "function"
    },
    {
      "inputs": [
        {
          "internalType": "uint256",
          "name": "",
          "type": "uint256"
        }
      ],
      "name": "winners",
      "outputs": [
        {
          "internalType": "address",
          "name": "",
          "type": "address"
        }
      ],
      "stateMutability": "view",
      "type": "function"
    }
  ],
  "bytecode": "0x608060405234801561001057600080fd5b5033600760006101000a81548173ffffffffffffffffffffffffffffffffffffffff021916908373ffffffffffffffffffffffffffffffffffffffff16021790555060016005819055506001600381905550600560068190555061114c806100796000396000f3fe608060405234801561001057600080fd5b506004361061009e5760003560e01c80638a19c8bc116100665780638a19c8bc146101495780638da5cb5b14610167578063a2fb117514610185578063dbd72a29146101b5578063f71d96cb146101d15761009e565b80630c6131b4146100a35780631209b1f6146100c15780634ad8a7ae146100df57806376910c5e146100fb578063785fa6271461012b575b600080fd5b6100ab610201565b6040516100b89190610d0a565b60405180910390f35b6100c961029b565b6040516100d69190610d0a565b60405180910390f35b6100f960048036038101906100f49190610a14565b6102a1565b005b61011560048036038101906101109190610a79565b6102f5565b6040516101229190610c8f565b60405180910390f35b610133610329565b6040516101409190610d0a565b60405180910390f35b61015161032f565b60405161015e9190610d0a565b60405180910390f35b61016f610335565b60405161017c9190610c14565b60405180910390f35b61019f600480360381019061019a9190610a79565b61035b565b6040516101ac9190610c14565b60405180910390f35b6101cf60048036038101906101ca91906109c5565b61039a565b005b6101eb60048036038101906101e69190610a79565b6103ed565b6040516101f89190610c14565b60405180910390f35b6000600760009054906101000a900473ffffffffffffffffffffffffffffffffffffffff1673ffffffffffffffffffffffffffffffffffffffff163373ffffffffffffffffffffffffffffffffffffffff1614610293576040517f08c379a000000000000000000000000000000000000000000000000000000000815260040161028a90610cca565b60405180910390fd5b600654905090565b60035481565b6001600090806001815401808255809150506001900390600052602060002090602091828204019190069091909190916101000a81548160ff0219169083151502179055506102f133838361042c565b5050565b6001818154811061030557600080fd5b9060005260206000209060209182820401919006915054906101000a900460ff1681565b60045481565b60055481565b600760009054906101000a900473ffffffffffffffffffffffffffffffffffffffff1681565b6002818154811061036b57600080fd5b906000526020600020016000915054906101000a900473ffffffffffffffffffffffffffffffffffffffff1681565b600180806001815401808255809150506001900390600052602060002090602091828204019190069091909190916101000a81548160ff0219169083151502179055506103e883838361042c565b505050565b600081815481106103fd57600080fd5b906000526020600020016000915054906101000a900473ffffffffffffffffffffffffffffffffffffffff1681565b600354811015610471576040517f08c379a000000000000000000000000000000000000000000000000000000000815260040161046890610caa565b60405180910390fd5b6003548111156104b6576040517f08c379a00000000000000000000000000000000000000000000000000000000081526004016104ad90610cea565b60405180910390fd5b8173ffffffffffffffffffffffffffffffffffffffff166323b872dd3330846040518463ffffffff1660e01b81526004016104f393929190610c2f565b602060405180830381600087803b15801561050d57600080fd5b505af1158015610521573d6000803e3d6000fd5b505050506040513d601f19601f820116820180604052508101906105459190610a50565b506000839080600181540180825580915050600190039060005260206000200160009091909190916101000a81548173ffffffffffffffffffffffffffffffffffffffff021916908373ffffffffffffffffffffffffffffffffffffffff160217905550806004546105b79190610e22565b6004819055507ff9e7a9da4f9a12377c11f3eb04adcdd6b78c503c781f6ae43f7d3553e22987bf60016000805490506105f09190610e78565b8460055460018080805490506106069190610e78565b8154811061063d577f4e487b7100000000000000000000000000000000000000000000000000000000600052603260045260246000fd5b90600052602060002090602091828204019190069054906101000a900460ff16600454604051610671959493929190610d25565b60405180910390a1600654600080549050106106915761069082610696565b5b505050565b600080805490506106a56108ea565b6106af9190610f81565b905060008082815481106106ec577f4e487b7100000000000000000000000000000000000000000000000000000000600052603260045260246000fd5b9060005260206000200160009054906101000a900473ffffffffffffffffffffffffffffffffffffffff1690508273ffffffffffffffffffffffffffffffffffffffff1663a9059cbb826004546040518363ffffffff1660e01b8152600401610756929190610c66565b602060405180830381600087803b15801561077057600080fd5b505af1158015610784573d6000803e3d6000fd5b505050506040513d601f19601f820116820180604052508101906107a89190610a50565b507fa3ef497e45543d9c85ed837857316dfd5ad8b178faed7a9b7a1e947669d1bf61828260055460018681548110610809577f4e487b7100000000000000000000000000000000000000000000000000000000600052603260045260246000fd5b90600052602060002090602091828204019190069054906101000a900460ff166004544260405161083f96959493929190610d78565b60405180910390a16002819080600181540180825580915050600190039060005260206000200160009091909190916101000a81548173ffffffffffffffffffffffffffffffffffffffff021916908373ffffffffffffffffffffffffffffffffffffffff160217905550600560008154809291906108bd90610f2e565b91905055506000806108cf9190610920565b600160006108dd9190610941565b6000600481905550505050565b60004342600060405160200161090293929190610bdb565b6040516020818303038152906040528051906020012060001c905090565b508054600082559060005260206000209081019061093e9190610969565b50565b50805460008255601f0160209004906000526020600020908101906109669190610969565b50565b5b8082111561098257600081600090555060010161096a565b5090565b600081359050610995816110d1565b92915050565b6000815190506109aa816110e8565b92915050565b6000813590506109bf816110ff565b92915050565b6000806000606084860312156109da57600080fd5b60006109e886828701610986565b93505060206109f986828701610986565b9250506040610a0a868287016109b0565b9150509250925092565b60008060408385031215610a2757600080fd5b6000610a3585828601610986565b9250506020610a46858286016109b0565b9150509250929050565b600060208284031215610a6257600080fd5b6000610a708482850161099b565b91505092915050565b600060208284031215610a8b57600080fd5b6000610a99848285016109b0565b91505092915050565b6000610aae8383610ac9565b60208301905092915050565b610ac381610ecc565b82525050565b610ad281610ecc565b82525050565b6000610ae382610dee565b610aed8185610e06565b9350610af883610dd9565b8060005b83811015610b3057610b0d82611010565b610b178882610aa2565b9750610b2283610df9565b925050600181019050610afc565b5085935050505092915050565b610b4681610ede565b82525050565b6000610b59601d83610e11565b9150610b6482611030565b602082019050919050565b6000610b7c602c83610e11565b9150610b8782611059565b604082019050919050565b6000610b9f601d83610e11565b9150610baa826110a8565b602082019050919050565b610bbe81610f0a565b82525050565b610bd5610bd082610f0a565b610f77565b82525050565b6000610be78286610bc4565b602082019150610bf78285610bc4565b602082019150610c078284610ad8565b9150819050949350505050565b6000602082019050610c296000830184610aba565b92915050565b6000606082019050610c446000830186610aba565b610c516020830185610aba565b610c5e6040830184610bb5565b949350505050565b6000604082019050610c7b6000830185610aba565b610c886020830184610bb5565b9392505050565b6000602082019050610ca46000830184610b3d565b92915050565b60006020820190508181036000830152610cc381610b4c565b9050919050565b60006020820190508181036000830152610ce381610b6f565b9050919050565b60006020820190508181036000830152610d0381610b92565b9050919050565b6000602082019050610d1f6000830184610bb5565b92915050565b600060a082019050610d3a6000830188610bb5565b610d476020830187610aba565b610d546040830186610bb5565b610d616060830185610b3d565b610d6e6080830184610bb5565b9695505050505050565b600060c082019050610d8d6000830189610bb5565b610d9a6020830188610aba565b610da76040830187610bb5565b610db46060830186610b3d565b610dc16080830185610bb5565b610dce60a0830184610bb5565b979650505050505050565b60008190508160005260206000209050919050565b600081549050919050565b6000600182019050919050565b600081905092915050565b600082825260208201905092915050565b6000610e2d82610f0a565b9150610e3883610f0a565b9250827fffffffffffffffffffffffffffffffffffffffffffffffffffffffffffffffff03821115610e6d57610e6c610fb2565b5b828201905092915050565b6000610e8382610f0a565b9150610e8e83610f0a565b925082821015610ea157610ea0610fb2565b5b828203905092915050565b600073ffffffffffffffffffffffffffffffffffffffff82169050919050565b6000610ed782610eea565b9050919050565b60008115159050919050565b600073ffffffffffffffffffffffffffffffffffffffff82169050919050565b6000819050919050565b6000610f27610f2283611023565b610eac565b9050919050565b6000610f3982610f0a565b91507fffffffffffffffffffffffffffffffffffffffffffffffffffffffffffffffff821415610f6c57610f6b610fb2565b5b600182019050919050565b6000819050919050565b6000610f8c82610f0a565b9150610f9783610f0a565b925082610fa757610fa6610fe1565b5b828206905092915050565b7f4e487b7100000000000000000000000000000000000000000000000000000000600052601160045260246000fd5b7f4e487b7100000000000000000000000000000000000000000000000000000000600052601260045260246000fd5b600061101c8254610f14565b9050919050565b60008160001c9050919050565b7f416d6f756e742073656e74206c657373207468616e206d696e696d756d000000600082015250565b7f54686973206d6574686f642069732072657374726963746564206a757374206660008201527f6f7220746865206f776e65720000000000000000000000000000000000000000602082015250565b7f416d6f756e742073656e74206d6f7265207468616e206d696e696d756d000000600082015250565b6110da81610ecc565b81146110e557600080fd5b50565b6110f181610ede565b81146110fc57600080fd5b50565b61110881610f0a565b811461111357600080fd5b5056fea26469706673582212206d11e1a64b82f5ade78ac6e35972b60293ef734013d1178d10624783cc885af964736f6c63430008040033",
  "linkReferences": {},
  "deployedLinkReferences": {}
}