{
  "_format": "hh-sol-artifact-1",
  "contractName": "LotteryToken",
  "sourceName": "contracts/LotteryToken.sol",
  "abi": [
    {
      "inputs": [
        {
          "internalType": "uint256",
          "name": "_ticketPrice",
          "type": "uint256"
        },
        {
          "internalType": "uint256",
          "name": "_players",
          "type": "uint256"
        },
        {
          "internalType": "address",
          "name": "_token",
          "type": "address"
        },
        {
          "internalType": "uint256",
          "name": "_burnPercent",
          "type": "uint256"
        },
        {
          "internalType": "bool",
          "name": "_round",
          "type": "bool"
        }
      ],
      "stateMutability": "nonpayable",
      "type": "constructor"
    },
    {
      "anonymous": false,
      "inputs": [
        {
          "indexed": false,
          "internalType": "uint256",
          "name": "ticketIndex",
          "type": "uint256"
        },
        {
          "indexed": false,
          "internalType": "address",
          "name": "winner",
          "type": "address"
        },
        {
          "indexed": false,
          "internalType": "uint256",
          "name": "round",
          "type": "uint256"
        },
        {
          "indexed": false,
          "internalType": "uint256",
          "name": "prizeAmount",
          "type": "uint256"
        },
        {
          "indexed": false,
          "internalType": "uint256",
          "name": "timestamp",
          "type": "uint256"
        }
      ],
      "name": "LotteryResult",
      "type": "event"
    },
    {
      "anonymous": false,
      "inputs": [
        {
          "indexed": false,
          "internalType": "uint256",
          "name": "ticketIndex",
          "type": "uint256"
        },
        {
          "indexed": false,
          "internalType": "address",
          "name": "player",
          "type": "address"
        },
        {
          "indexed": false,
          "internalType": "uint256",
          "name": "round",
          "type": "uint256"
        },
        {
          "indexed": false,
          "internalType": "uint256",
          "name": "prizeAmount",
          "type": "uint256"
        }
      ],
      "name": "PlayerJoined",
      "type": "event"
    },
    {
      "inputs": [],
      "name": "currentRound",
      "outputs": [
        {
          "internalType": "uint256",
          "name": "",
          "type": "uint256"
        }
      ],
      "stateMutability": "view",
      "type": "function"
    },
    {
      "inputs": [],
      "name": "forceWinner",
      "outputs": [],
      "stateMutability": "nonpayable",
      "type": "function"
    },
    {
      "inputs": [],
      "name": "getMinRoundPlayers",
      "outputs": [
        {
          "internalType": "uint256",
          "name": "",
          "type": "uint256"
        }
      ],
      "stateMutability": "view",
      "type": "function"
    },
    {
      "inputs": [
        {
          "internalType": "uint256",
          "name": "_amount",
          "type": "uint256"
        }
      ],
      "name": "joinLottery",
      "outputs": [],
      "stateMutability": "nonpayable",
      "type": "function"
    },
    {
      "inputs": [],
      "name": "owner",
      "outputs": [
        {
          "internalType": "address",
          "name": "",
          "type": "address"
        }
      ],
      "stateMutability": "view",
      "type": "function"
    },
    {
      "inputs": [
        {
          "internalType": "uint256",
          "name": "",
          "type": "uint256"
        }
      ],
      "name": "players",
      "outputs": [
        {
          "internalType": "address",
          "name": "",
          "type": "address"
        }
      ],
      "stateMutability": "view",
      "type": "function"
    },
    {
      "inputs": [],
      "name": "prizeAmount",
      "outputs": [
        {
          "internalType": "uint256",
          "name": "",
          "type": "uint256"
        }
      ],
      "stateMutability": "view",
      "type": "function"
    },
    {
      "inputs": [
        {
          "internalType": "uint256",
          "name": "_percent",
          "type": "uint256"
        }
      ],
      "name": "setBurnPercent",
      "outputs": [],
      "stateMutability": "nonpayable",
      "type": "function"
    },
    {
      "inputs": [
        {
          "internalType": "uint256",
          "name": "_nplayers",
          "type": "uint256"
        }
      ],
      "name": "setMinRoundPlayers",
      "outputs": [],
      "stateMutability": "nonpayable",
      "type": "function"
    },
    {
      "inputs": [
        {
          "internalType": "bool",
          "name": "_start",
          "type": "bool"
        }
      ],
      "name": "setStartRound",
      "outputs": [],
      "stateMutability": "nonpayable",
      "type": "function"
    },
    {
      "inputs": [
        {
          "internalType": "uint256",
          "name": "_amount",
          "type": "uint256"
        }
      ],
      "name": "setTicketPrice",
      "outputs": [],
      "stateMutability": "nonpayable",
      "type": "function"
    },
    {
      "inputs": [
        {
          "internalType": "address",
          "name": "_token",
          "type": "address"
        }
      ],
      "name": "setTokenAddress",
      "outputs": [],
      "stateMutability": "nonpayable",
      "type": "function"
    },
    {
      "inputs": [],
      "name": "startNextRound",
      "outputs": [
        {
          "internalType": "bool",
          "name": "",
          "type": "bool"
        }
      ],
      "stateMutability": "view",
      "type": "function"
    },
    {
      "inputs": [],
      "name": "startRound",
      "outputs": [
        {
          "internalType": "bool",
          "name": "",
          "type": "bool"
        }
      ],
      "stateMutability": "view",
      "type": "function"
    },
    {
      "inputs": [],
      "name": "ticketPrice",
      "outputs": [
        {
          "internalType": "uint256",
          "name": "",
          "type": "uint256"
        }
      ],
      "stateMutability": "view",
      "type": "function"
    },
    {
      "inputs": [],
      "name": "tokenAddress",
      "outputs": [
        {
          "internalType": "address",
          "name": "",
          "type": "address"
        }
      ],
      "stateMutability": "view",
      "type": "function"
    },
    {
      "inputs": [
        {
          "internalType": "address",
          "name": "_owner",
          "type": "address"
        }
      ],
      "name": "transferOwner",
      "outputs": [],
      "stateMutability": "nonpayable",
      "type": "function"
    },
    {
      "inputs": [
        {
          "internalType": "uint256",
          "name": "",
          "type": "uint256"
        }
      ],
      "name": "winners",
      "outputs": [
        {
          "internalType": "address",
          "name": "",
          "type": "address"
        }
      ],
      "stateMutability": "view",
      "type": "function"
    }
  ],
  "bytecode": "0x60806040523480156200001157600080fd5b5060405162001eca38038062001eca83398181016040528101906200003791906200019b565b33600660006101000a81548173ffffffffffffffffffffffffffffffffffffffff021916908373ffffffffffffffffffffffffffffffffffffffff1602179055506001600481905550846002819055508360058190555082600960006101000a81548173ffffffffffffffffffffffffffffffffffffffff021916908373ffffffffffffffffffffffffffffffffffffffff16021790555082600860026101000a81548173ffffffffffffffffffffffffffffffffffffffff021916908373ffffffffffffffffffffffffffffffffffffffff1602179055508160078190555080600860006101000a81548160ff02191690831515021790555080600860016101000a81548160ff0219169083151502179055505050505050620002b5565b600081519050620001678162000267565b92915050565b6000815190506200017e8162000281565b92915050565b60008151905062000195816200029b565b92915050565b600080600080600060a08688031215620001b457600080fd5b6000620001c48882890162000184565b9550506020620001d78882890162000184565b9450506040620001ea8882890162000156565b9350506060620001fd8882890162000184565b925050608062000210888289016200016d565b9150509295509295909350565b60006200022a826200023d565b9050919050565b60008115159050919050565b600073ffffffffffffffffffffffffffffffffffffffff82169050919050565b6000819050919050565b62000272816200021d565b81146200027e57600080fd5b50565b6200028c8162000231565b81146200029857600080fd5b50565b620002a6816200025d565b8114620002b257600080fd5b50565b611c0580620002c56000396000f3fe608060405234801561001057600080fd5b50600436106101165760003560e01c80637eee9fc1116100a2578063a2fb117511610071578063a2fb117514610297578063aa6e86f8146102c7578063bb1570da146102e3578063e4cde99e146102ff578063f71d96cb1461030957610116565b80637eee9fc1146102215780638a19c8bc1461023d5780638da5cb5b1461025b5780639d76ea581461027957610116565b80633c3ccc44116100e95780633c3ccc441461018f5780634fb2e45d146101ad57806355e3f086146101c9578063785fa627146101e75780637de9a3e61461020557610116565b80630c6131b41461011b5780631209b1f614610139578063159816501461015757806326a4e8d214610173575b600080fd5b610123610339565b604051610130919061172f565b60405180910390f35b6101416103d3565b60405161014e919061172f565b60405180910390f35b610171600480360381019061016c91906113ac565b6103d9565b005b61018d60048036038101906101889190611331565b610473565b005b610197610588565b6040516101a49190611654565b60405180910390f35b6101c760048036038101906101c29190611331565b61059b565b005b6101d161066f565b6040516101de9190611654565b60405180910390f35b6101ef610682565b6040516101fc919061172f565b60405180910390f35b61021f600480360381019061021a919061135a565b610688565b005b61023b600480360381019061023691906113ac565b61077c565b005b610245610869565b604051610252919061172f565b60405180910390f35b61026361086f565b60405161027091906115d9565b60405180910390f35b610281610895565b60405161028e91906115d9565b60405180910390f35b6102b160048036038101906102ac91906113ac565b6108bb565b6040516102be91906115d9565b60405180910390f35b6102e160048036038101906102dc91906113ac565b6108fa565b005b6102fd60048036038101906102f891906113ac565b6109d7565b005b610307610ab5565b005b610323600480360381019061031e91906113ac565b610b4f565b60405161033091906115d9565b60405180910390f35b6000600660009054906101000a900473ffffffffffffffffffffffffffffffffffffffff1673ffffffffffffffffffffffffffffffffffffffff163373ffffffffffffffffffffffffffffffffffffffff16146103cb576040517f08c379a00000000000000000000000000000000000000000000000000000000081526004016103c2906116cf565b60405180910390fd5b600554905090565b60025481565b600660009054906101000a900473ffffffffffffffffffffffffffffffffffffffff1673ffffffffffffffffffffffffffffffffffffffff163373ffffffffffffffffffffffffffffffffffffffff1614610469576040517f08c379a0000000000000000000000000000000000000000000000000000000008152600401610460906116cf565b60405180910390fd5b8060028190555050565b600660009054906101000a900473ffffffffffffffffffffffffffffffffffffffff1673ffffffffffffffffffffffffffffffffffffffff163373ffffffffffffffffffffffffffffffffffffffff1614610503576040517f08c379a00000000000000000000000000000000000000000000000000000000081526004016104fa906116cf565b60405180910390fd5b80600860026101000a81548173ffffffffffffffffffffffffffffffffffffffff021916908373ffffffffffffffffffffffffffffffffffffffff16021790555080600960006101000a81548173ffffffffffffffffffffffffffffffffffffffff021916908373ffffffffffffffffffffffffffffffffffffffff16021790555050565b600860019054906101000a900460ff1681565b600660009054906101000a900473ffffffffffffffffffffffffffffffffffffffff1673ffffffffffffffffffffffffffffffffffffffff163373ffffffffffffffffffffffffffffffffffffffff161461062b576040517f08c379a0000000000000000000000000000000000000000000000000000000008152600401610622906116cf565b60405180910390fd5b80600660006101000a81548173ffffffffffffffffffffffffffffffffffffffff021916908373ffffffffffffffffffffffffffffffffffffffff16021790555050565b600860009054906101000a900460ff1681565b60035481565b600660009054906101000a900473ffffffffffffffffffffffffffffffffffffffff1673ffffffffffffffffffffffffffffffffffffffff163373ffffffffffffffffffffffffffffffffffffffff1614610718576040517f08c379a000000000000000000000000000000000000000000000000000000000815260040161070f906116cf565b60405180910390fd5b60008080549050141561075e5780600860006101000a81548160ff02191690831515021790555080600860016101000a81548160ff021916908315150217905550610779565b80600860016101000a81548160ff0219169083151502179055505b50565b6002548110156107c1576040517f08c379a00000000000000000000000000000000000000000000000000000000081526004016107b89061168f565b60405180910390fd5b600254811115610806576040517f08c379a00000000000000000000000000000000000000000000000000000000081526004016107fd9061170f565b60405180910390fd5b60011515600860009054906101000a900460ff1615151461085c576040517f08c379a00000000000000000000000000000000000000000000000000000000081526004016108539061166f565b60405180910390fd5b6108663382610b8e565b50565b60045481565b600660009054906101000a900473ffffffffffffffffffffffffffffffffffffffff1681565b600860029054906101000a900473ffffffffffffffffffffffffffffffffffffffff1681565b600181815481106108cb57600080fd5b906000526020600020016000915054906101000a900473ffffffffffffffffffffffffffffffffffffffff1681565b600660009054906101000a900473ffffffffffffffffffffffffffffffffffffffff1673ffffffffffffffffffffffffffffffffffffffff163373ffffffffffffffffffffffffffffffffffffffff161461098a576040517f08c379a0000000000000000000000000000000000000000000000000000000008152600401610981906116cf565b60405180910390fd5b600081116109cd576040517f08c379a00000000000000000000000000000000000000000000000000000000081526004016109c4906116af565b60405180910390fd5b8060058190555050565b600660009054906101000a900473ffffffffffffffffffffffffffffffffffffffff1673ffffffffffffffffffffffffffffffffffffffff163373ffffffffffffffffffffffffffffffffffffffff1614610a67576040517f08c379a0000000000000000000000000000000000000000000000000000000008152600401610a5e906116cf565b60405180910390fd5b6064811115610aab576040517f08c379a0000000000000000000000000000000000000000000000000000000008152600401610aa2906116ef565b60405180910390fd5b8060078190555050565b600660009054906101000a900473ffffffffffffffffffffffffffffffffffffffff1673ffffffffffffffffffffffffffffffffffffffff163373ffffffffffffffffffffffffffffffffffffffff1614610b45576040517f08c379a0000000000000000000000000000000000000000000000000000000008152600401610b3c906116cf565b60405180910390fd5b610b4d610e71565b565b60008181548110610b5f57600080fd5b906000526020600020016000915054906101000a900473ffffffffffffffffffffffffffffffffffffffff1681565b600860029054906101000a900473ffffffffffffffffffffffffffffffffffffffff1673ffffffffffffffffffffffffffffffffffffffff1663095ea7b333836040518363ffffffff1660e01b8152600401610beb92919061162b565b602060405180830381600087803b158015610c0557600080fd5b505af1158015610c19573d6000803e3d6000fd5b505050506040513d601f19601f82011682018060405250810190610c3d9190611383565b50600860029054906101000a900473ffffffffffffffffffffffffffffffffffffffff1673ffffffffffffffffffffffffffffffffffffffff166323b872dd3330846040518463ffffffff1660e01b8152600401610c9d939291906115f4565b602060405180830381600087803b158015610cb757600080fd5b505af1158015610ccb573d6000803e3d6000fd5b505050506040513d601f19601f82011682018060405250810190610cef9190611383565b506000829080600181540180825580915050600190039060005260206000200160009091909190916101000a81548173ffffffffffffffffffffffffffffffffffffffff021916908373ffffffffffffffffffffffffffffffffffffffff160217905550600860029054906101000a900473ffffffffffffffffffffffffffffffffffffffff1673ffffffffffffffffffffffffffffffffffffffff166370a08231306040518263ffffffff1660e01b8152600401610dae91906115d9565b60206040518083038186803b158015610dc657600080fd5b505afa158015610dda573d6000803e3d6000fd5b505050506040513d601f19601f82011682018060405250810190610dfe91906113d5565b6003819055507f1106c14aab1f44b1577fd2f42206ee286f0fbf82c72942bbcdc9028af44216ff6001600080549050610e3791906118b6565b83600454600354604051610e4e949392919061174a565b60405180910390a160055460008054905010610e6d57610e6c610e71565b5b5050565b60008080549050610e80611228565b610e8a91906119bf565b90506000808281548110610ec7577f4e487b7100000000000000000000000000000000000000000000000000000000600052603260045260246000fd5b9060005260206000200160009054906101000a900473ffffffffffffffffffffffffffffffffffffffff1690506000610f206064610f1260075460035461125e90919063ffffffff16565b61127490919063ffffffff16565b9050600960009054906101000a900473ffffffffffffffffffffffffffffffffffffffff1673ffffffffffffffffffffffffffffffffffffffff1663095ea7b330836040518363ffffffff1660e01b8152600401610f7f92919061162b565b602060405180830381600087803b158015610f9957600080fd5b505af1158015610fad573d6000803e3d6000fd5b505050506040513d601f19601f82011682018060405250810190610fd19190611383565b50600960009054906101000a900473ffffffffffffffffffffffffffffffffffffffff1673ffffffffffffffffffffffffffffffffffffffff166379cc679030836040518363ffffffff1660e01b815260040161102f92919061162b565b600060405180830381600087803b15801561104957600080fd5b505af115801561105d573d6000803e3d6000fd5b505050508060035461106f91906118b6565b600381905550600860029054906101000a900473ffffffffffffffffffffffffffffffffffffffff1673ffffffffffffffffffffffffffffffffffffffff1663a9059cbb836003546040518363ffffffff1660e01b81526004016110d492919061162b565b602060405180830381600087803b1580156110ee57600080fd5b505af1158015611102573d6000803e3d6000fd5b505050506040513d601f19601f820116820180604052508101906111269190611383565b507fdc3212edc2f47e4579ebee4165e0708b8bd5d30496e4071f2c10e327b356663b83836004546003544260405161116295949392919061178f565b60405180910390a16001829080600181540180825580915050600190039060005260206000200160009091909190916101000a81548173ffffffffffffffffffffffffffffffffffffffff021916908373ffffffffffffffffffffffffffffffffffffffff160217905550600460008154809291906111e09061196c565b91905055506000806111f2919061128a565b6000600381905550600860019054906101000a900460ff16600860006101000a81548160ff021916908315150217905550505050565b600043426000604051602001611240939291906115a0565b6040516020818303038152906040528051906020012060001c905090565b6000818361126c919061185c565b905092915050565b60008183611282919061182b565b905092915050565b50805460008255906000526020600020908101906112a891906112ab565b50565b5b808211156112c45760008160009055506001016112ac565b5090565b6000813590506112d781611b8a565b92915050565b6000813590506112ec81611ba1565b92915050565b60008151905061130181611ba1565b92915050565b60008135905061131681611bb8565b92915050565b60008151905061132b81611bb8565b92915050565b60006020828403121561134357600080fd5b6000611351848285016112c8565b91505092915050565b60006020828403121561136c57600080fd5b600061137a848285016112dd565b91505092915050565b60006020828403121561139557600080fd5b60006113a3848285016112f2565b91505092915050565b6000602082840312156113be57600080fd5b60006113cc84828501611307565b91505092915050565b6000602082840312156113e757600080fd5b60006113f58482850161131c565b91505092915050565b600061140a8383611425565b60208301905092915050565b61141f8161190a565b82525050565b61142e8161190a565b82525050565b600061143f826117f7565b611449818561180f565b9350611454836117e2565b8060005b8381101561148c5761146982611a4e565b61147388826113fe565b975061147e83611802565b925050600181019050611458565b5085935050505092915050565b6114a28161191c565b82525050565b60006114b560168361181a565b91506114c082611a6e565b602082019050919050565b60006114d8601d8361181a565b91506114e382611a97565b602082019050919050565b60006114fb60188361181a565b915061150682611ac0565b602082019050919050565b600061151e602c8361181a565b915061152982611ae9565b604082019050919050565b6000611541601a8361181a565b915061154c82611b38565b602082019050919050565b6000611564601d8361181a565b915061156f82611b61565b602082019050919050565b61158381611948565b82525050565b61159a61159582611948565b6119b5565b82525050565b60006115ac8286611589565b6020820191506115bc8285611589565b6020820191506115cc8284611434565b9150819050949350505050565b60006020820190506115ee6000830184611416565b92915050565b60006060820190506116096000830186611416565b6116166020830185611416565b611623604083018461157a565b949350505050565b60006040820190506116406000830185611416565b61164d602083018461157a565b9392505050565b60006020820190506116696000830184611499565b92915050565b60006020820190508181036000830152611688816114a8565b9050919050565b600060208201905081810360008301526116a8816114cb565b9050919050565b600060208201905081810360008301526116c8816114ee565b9050919050565b600060208201905081810360008301526116e881611511565b9050919050565b6000602082019050818103600083015261170881611534565b9050919050565b6000602082019050818103600083015261172881611557565b9050919050565b6000602082019050611744600083018461157a565b92915050565b600060808201905061175f600083018761157a565b61176c6020830186611416565b611779604083018561157a565b611786606083018461157a565b95945050505050565b600060a0820190506117a4600083018861157a565b6117b16020830187611416565b6117be604083018661157a565b6117cb606083018561157a565b6117d8608083018461157a565b9695505050505050565b60008190508160005260206000209050919050565b600081549050919050565b6000600182019050919050565b600081905092915050565b600082825260208201905092915050565b600061183682611948565b915061184183611948565b92508261185157611850611a1f565b5b828204905092915050565b600061186782611948565b915061187283611948565b9250817fffffffffffffffffffffffffffffffffffffffffffffffffffffffffffffffff04831182151516156118ab576118aa6119f0565b5b828202905092915050565b60006118c182611948565b91506118cc83611948565b9250828210156118df576118de6119f0565b5b828203905092915050565b600073ffffffffffffffffffffffffffffffffffffffff82169050919050565b600061191582611928565b9050919050565b60008115159050919050565b600073ffffffffffffffffffffffffffffffffffffffff82169050919050565b6000819050919050565b600061196561196083611a61565b6118ea565b9050919050565b600061197782611948565b91507fffffffffffffffffffffffffffffffffffffffffffffffffffffffffffffffff8214156119aa576119a96119f0565b5b600182019050919050565b6000819050919050565b60006119ca82611948565b91506119d583611948565b9250826119e5576119e4611a1f565b5b828206905092915050565b7f4e487b7100000000000000000000000000000000000000000000000000000000600052601160045260246000fd5b7f4e487b7100000000000000000000000000000000000000000000000000000000600052601260045260246000fd5b6000611a5a8254611952565b9050919050565b60008160001c9050919050565b7f4c6f747465727920726f756e64206e6f74206f70656e00000000000000000000600082015250565b7f416d6f756e742073656e74206c657373207468616e206d696e696d756d000000600082015250565b7f43616e6e6f742068617665207a65726f20706c61796572730000000000000000600082015250565b7f54686973206d6574686f642069732072657374726963746564206a757374206660008201527f6f7220746865206f776e65720000000000000000000000000000000000000000602082015250565b7f43616e6e6f74206275726e206d6f7265207468616e2031303025000000000000600082015250565b7f416d6f756e742073656e74206d6f7265207468616e206d696e696d756d000000600082015250565b611b938161190a565b8114611b9e57600080fd5b50565b611baa8161191c565b8114611bb557600080fd5b50565b611bc181611948565b8114611bcc57600080fd5b5056fea2646970667358221220e6a09b802e718ba51ce8b6d60747bd9d4ac2eea5b35e5731b055453cd6e8baa864736f6c63430008040033",
  "linkReferences": {},
  "deployedLinkReferences": {}
}