{
  "_format": "hh-sol-artifact-1",
  "contractName": "LotteryToken",
  "sourceName": "contracts/LotteryToken.sol",
  "abi": [
    {
      "inputs": [
        {
          "internalType": "address",
          "name": "token_",
          "type": "address"
        }
      ],
      "stateMutability": "nonpayable",
      "type": "constructor"
    },
    {
      "anonymous": false,
      "inputs": [
        {
          "indexed": false,
          "internalType": "uint256",
          "name": "ticketIndex",
          "type": "uint256"
        },
        {
          "indexed": false,
          "internalType": "address",
          "name": "winner",
          "type": "address"
        },
        {
          "indexed": false,
          "internalType": "uint256",
          "name": "round",
          "type": "uint256"
        },
        {
          "indexed": false,
          "internalType": "bool",
          "name": "isGifted",
          "type": "bool"
        },
        {
          "indexed": false,
          "internalType": "uint256",
          "name": "prizeAmount",
          "type": "uint256"
        },
        {
          "indexed": false,
          "internalType": "uint256",
          "name": "timestamp",
          "type": "uint256"
        }
      ],
      "name": "LotteryResult",
      "type": "event"
    },
    {
      "anonymous": false,
      "inputs": [
        {
          "indexed": false,
          "internalType": "uint256",
          "name": "ticketIndex",
          "type": "uint256"
        },
        {
          "indexed": false,
          "internalType": "address",
          "name": "player",
          "type": "address"
        },
        {
          "indexed": false,
          "internalType": "uint256",
          "name": "round",
          "type": "uint256"
        },
        {
          "indexed": false,
          "internalType": "bool",
          "name": "isGifted",
          "type": "bool"
        },
        {
          "indexed": false,
          "internalType": "uint256",
          "name": "prizeAmount",
          "type": "uint256"
        }
      ],
      "name": "PlayerJoined",
      "type": "event"
    },
    {
      "inputs": [],
      "name": "currentRound",
      "outputs": [
        {
          "internalType": "uint256",
          "name": "",
          "type": "uint256"
        }
      ],
      "stateMutability": "view",
      "type": "function"
    },
    {
      "inputs": [],
      "name": "getMinRoundPlayers",
      "outputs": [
        {
          "internalType": "uint256",
          "name": "",
          "type": "uint256"
        }
      ],
      "stateMutability": "view",
      "type": "function"
    },
    {
      "inputs": [
        {
          "internalType": "address",
          "name": "_recipient",
          "type": "address"
        },
        {
          "internalType": "address",
          "name": "_token",
          "type": "address"
        },
        {
          "internalType": "uint256",
          "name": "_amount",
          "type": "uint256"
        }
      ],
      "name": "giftTicket",
      "outputs": [],
      "stateMutability": "nonpayable",
      "type": "function"
    },
    {
      "inputs": [
        {
          "internalType": "uint256",
          "name": "",
          "type": "uint256"
        }
      ],
      "name": "isGift",
      "outputs": [
        {
          "internalType": "bool",
          "name": "",
          "type": "bool"
        }
      ],
      "stateMutability": "view",
      "type": "function"
    },
    {
      "inputs": [
        {
          "internalType": "address",
          "name": "_token",
          "type": "address"
        },
        {
          "internalType": "uint256",
          "name": "_amount",
          "type": "uint256"
        }
      ],
      "name": "joinLottery",
      "outputs": [],
      "stateMutability": "nonpayable",
      "type": "function"
    },
    {
      "inputs": [],
      "name": "owner",
      "outputs": [
        {
          "internalType": "address",
          "name": "",
          "type": "address"
        }
      ],
      "stateMutability": "view",
      "type": "function"
    },
    {
      "inputs": [
        {
          "internalType": "uint256",
          "name": "",
          "type": "uint256"
        }
      ],
      "name": "players",
      "outputs": [
        {
          "internalType": "address",
          "name": "",
          "type": "address"
        }
      ],
      "stateMutability": "view",
      "type": "function"
    },
    {
      "inputs": [],
      "name": "prizeAmount",
      "outputs": [
        {
          "internalType": "uint256",
          "name": "",
          "type": "uint256"
        }
      ],
      "stateMutability": "view",
      "type": "function"
    },
    {
      "inputs": [],
      "name": "ticketPrice",
      "outputs": [
        {
          "internalType": "uint256",
          "name": "",
          "type": "uint256"
        }
      ],
      "stateMutability": "view",
      "type": "function"
    },
    {
      "inputs": [
        {
          "internalType": "uint256",
          "name": "",
          "type": "uint256"
        }
      ],
      "name": "winners",
      "outputs": [
        {
          "internalType": "address",
          "name": "",
          "type": "address"
        }
      ],
      "stateMutability": "view",
      "type": "function"
    }
  ],
  "bytecode": "0x60806040523480156200001157600080fd5b5060405162001482380380620014828339818101604052810190620000379190620000ef565b33600760006101000a81548173ffffffffffffffffffffffffffffffffffffffff021916908373ffffffffffffffffffffffffffffffffffffffff16021790555060016005819055506001600381905550600560068190555080600860006101000a81548173ffffffffffffffffffffffffffffffffffffffff021916908373ffffffffffffffffffffffffffffffffffffffff1602179055505062000169565b600081519050620000e9816200014f565b92915050565b6000602082840312156200010257600080fd5b60006200011284828501620000d8565b91505092915050565b600062000128826200012f565b9050919050565b600073ffffffffffffffffffffffffffffffffffffffff82169050919050565b6200015a816200011b565b81146200016657600080fd5b50565b61130980620001796000396000f3fe608060405234801561001057600080fd5b506004361061009e5760003560e01c80638a19c8bc116100665780638a19c8bc146101495780638da5cb5b14610167578063a2fb117514610185578063dbd72a29146101b5578063f71d96cb146101d15761009e565b80630c6131b4146100a35780631209b1f6146100c15780634ad8a7ae146100df57806376910c5e146100fb578063785fa6271461012b575b600080fd5b6100ab610201565b6040516100b89190610f1d565b60405180910390f35b6100c961029b565b6040516100d69190610f1d565b60405180910390f35b6100f960048036038101906100f49190610bfe565b6102a1565b005b61011560048036038101906101109190610c63565b6102f5565b6040516101229190610ea2565b60405180910390f35b610133610329565b6040516101409190610f1d565b60405180910390f35b61015161032f565b60405161015e9190610f1d565b60405180910390f35b61016f610335565b60405161017c9190610e27565b60405180910390f35b61019f600480360381019061019a9190610c63565b61035b565b6040516101ac9190610e27565b60405180910390f35b6101cf60048036038101906101ca9190610baf565b61039a565b005b6101eb60048036038101906101e69190610c63565b6103ed565b6040516101f89190610e27565b60405180910390f35b6000600760009054906101000a900473ffffffffffffffffffffffffffffffffffffffff1673ffffffffffffffffffffffffffffffffffffffff163373ffffffffffffffffffffffffffffffffffffffff1614610293576040517f08c379a000000000000000000000000000000000000000000000000000000000815260040161028a90610edd565b60405180910390fd5b600654905090565b60035481565b6001600090806001815401808255809150506001900390600052602060002090602091828204019190069091909190916101000a81548160ff0219169083151502179055506102f133838361042c565b5050565b6001818154811061030557600080fd5b9060005260206000209060209182820401919006915054906101000a900460ff1681565b60045481565b60055481565b600760009054906101000a900473ffffffffffffffffffffffffffffffffffffffff1681565b6002818154811061036b57600080fd5b906000526020600020016000915054906101000a900473ffffffffffffffffffffffffffffffffffffffff1681565b600180806001815401808255809150506001900390600052602060002090602091828204019190069091909190916101000a81548160ff0219169083151502179055506103e883838361042c565b505050565b600081815481106103fd57600080fd5b906000526020600020016000915054906101000a900473ffffffffffffffffffffffffffffffffffffffff1681565b600354811015610471576040517f08c379a000000000000000000000000000000000000000000000000000000000815260040161046890610ebd565b60405180910390fd5b6003548111156104b6576040517f08c379a00000000000000000000000000000000000000000000000000000000081526004016104ad90610efd565b60405180910390fd5b8173ffffffffffffffffffffffffffffffffffffffff166323b872dd3330846040518463ffffffff1660e01b81526004016104f393929190610e42565b602060405180830381600087803b15801561050d57600080fd5b505af1158015610521573d6000803e3d6000fd5b505050506040513d601f19601f820116820180604052508101906105459190610c3a565b506000839080600181540180825580915050600190039060005260206000200160009091909190916101000a81548173ffffffffffffffffffffffffffffffffffffffff021916908373ffffffffffffffffffffffffffffffffffffffff1602179055508173ffffffffffffffffffffffffffffffffffffffff166370a08231306040518263ffffffff1660e01b81526004016105e29190610e27565b60206040518083038186803b1580156105fa57600080fd5b505afa15801561060e573d6000803e3d6000fd5b505050506040513d601f19601f820116820180604052508101906106329190610c8c565b6004819055507ff9e7a9da4f9a12377c11f3eb04adcdd6b78c503c781f6ae43f7d3553e22987bf600160008054905061066b9190611035565b8460055460018080805490506106819190611035565b815481106106b8577f4e487b7100000000000000000000000000000000000000000000000000000000600052603260045260246000fd5b90600052602060002090602091828204019190069054906101000a900460ff166004546040516106ec959493929190610f38565b60405180910390a16006546000805490501061070c5761070b82610711565b5b505050565b60008080549050610720610abf565b61072a919061113e565b90506000808281548110610767577f4e487b7100000000000000000000000000000000000000000000000000000000600052603260045260246000fd5b9060005260206000200160009054906101000a900473ffffffffffffffffffffffffffffffffffffffff169050600060019050600860009054906101000a900473ffffffffffffffffffffffffffffffffffffffff1673ffffffffffffffffffffffffffffffffffffffff1663095ea7b330836040518363ffffffff1660e01b81526004016107f7929190610e79565b602060405180830381600087803b15801561081157600080fd5b505af1158015610825573d6000803e3d6000fd5b505050506040513d601f19601f820116820180604052508101906108499190610c3a565b50600860009054906101000a900473ffffffffffffffffffffffffffffffffffffffff1673ffffffffffffffffffffffffffffffffffffffff166379cc679030836040518363ffffffff1660e01b81526004016108a7929190610e79565b600060405180830381600087803b1580156108c157600080fd5b505af11580156108d5573d6000803e3d6000fd5b50505050806004546108e79190611035565b6004819055508373ffffffffffffffffffffffffffffffffffffffff1663a9059cbb836004546040518363ffffffff1660e01b815260040161092a929190610e79565b602060405180830381600087803b15801561094457600080fd5b505af1158015610958573d6000803e3d6000fd5b505050506040513d601f19601f8201168201806040525081019061097c9190610c3a565b507fa3ef497e45543d9c85ed837857316dfd5ad8b178faed7a9b7a1e947669d1bf618383600554600187815481106109dd577f4e487b7100000000000000000000000000000000000000000000000000000000600052603260045260246000fd5b90600052602060002090602091828204019190069054906101000a900460ff1660045442604051610a1396959493929190610f8b565b60405180910390a16002829080600181540180825580915050600190039060005260206000200160009091909190916101000a81548173ffffffffffffffffffffffffffffffffffffffff021916908373ffffffffffffffffffffffffffffffffffffffff16021790555060056000815480929190610a91906110eb565b9190505550600080610aa39190610af5565b60016000610ab19190610b16565b600060048190555050505050565b600043426000604051602001610ad793929190610dee565b6040516020818303038152906040528051906020012060001c905090565b5080546000825590600052602060002090810190610b139190610b3e565b50565b50805460008255601f016020900490600052602060002090810190610b3b9190610b3e565b50565b5b80821115610b57576000816000905550600101610b3f565b5090565b600081359050610b6a8161128e565b92915050565b600081519050610b7f816112a5565b92915050565b600081359050610b94816112bc565b92915050565b600081519050610ba9816112bc565b92915050565b600080600060608486031215610bc457600080fd5b6000610bd286828701610b5b565b9350506020610be386828701610b5b565b9250506040610bf486828701610b85565b9150509250925092565b60008060408385031215610c1157600080fd5b6000610c1f85828601610b5b565b9250506020610c3085828601610b85565b9150509250929050565b600060208284031215610c4c57600080fd5b6000610c5a84828501610b70565b91505092915050565b600060208284031215610c7557600080fd5b6000610c8384828501610b85565b91505092915050565b600060208284031215610c9e57600080fd5b6000610cac84828501610b9a565b91505092915050565b6000610cc18383610cdc565b60208301905092915050565b610cd681611089565b82525050565b610ce581611089565b82525050565b6000610cf682611001565b610d008185611019565b9350610d0b83610fec565b8060005b83811015610d4357610d20826111cd565b610d2a8882610cb5565b9750610d358361100c565b925050600181019050610d0f565b5085935050505092915050565b610d598161109b565b82525050565b6000610d6c601d83611024565b9150610d77826111ed565b602082019050919050565b6000610d8f602c83611024565b9150610d9a82611216565b604082019050919050565b6000610db2601d83611024565b9150610dbd82611265565b602082019050919050565b610dd1816110c7565b82525050565b610de8610de3826110c7565b611134565b82525050565b6000610dfa8286610dd7565b602082019150610e0a8285610dd7565b602082019150610e1a8284610ceb565b9150819050949350505050565b6000602082019050610e3c6000830184610ccd565b92915050565b6000606082019050610e576000830186610ccd565b610e646020830185610ccd565b610e716040830184610dc8565b949350505050565b6000604082019050610e8e6000830185610ccd565b610e9b6020830184610dc8565b9392505050565b6000602082019050610eb76000830184610d50565b92915050565b60006020820190508181036000830152610ed681610d5f565b9050919050565b60006020820190508181036000830152610ef681610d82565b9050919050565b60006020820190508181036000830152610f1681610da5565b9050919050565b6000602082019050610f326000830184610dc8565b92915050565b600060a082019050610f4d6000830188610dc8565b610f5a6020830187610ccd565b610f676040830186610dc8565b610f746060830185610d50565b610f816080830184610dc8565b9695505050505050565b600060c082019050610fa06000830189610dc8565b610fad6020830188610ccd565b610fba6040830187610dc8565b610fc76060830186610d50565b610fd46080830185610dc8565b610fe160a0830184610dc8565b979650505050505050565b60008190508160005260206000209050919050565b600081549050919050565b6000600182019050919050565b600081905092915050565b600082825260208201905092915050565b6000611040826110c7565b915061104b836110c7565b92508282101561105e5761105d61116f565b5b828203905092915050565b600073ffffffffffffffffffffffffffffffffffffffff82169050919050565b6000611094826110a7565b9050919050565b60008115159050919050565b600073ffffffffffffffffffffffffffffffffffffffff82169050919050565b6000819050919050565b60006110e46110df836111e0565b611069565b9050919050565b60006110f6826110c7565b91507fffffffffffffffffffffffffffffffffffffffffffffffffffffffffffffffff8214156111295761112861116f565b5b600182019050919050565b6000819050919050565b6000611149826110c7565b9150611154836110c7565b9250826111645761116361119e565b5b828206905092915050565b7f4e487b7100000000000000000000000000000000000000000000000000000000600052601160045260246000fd5b7f4e487b7100000000000000000000000000000000000000000000000000000000600052601260045260246000fd5b60006111d982546110d1565b9050919050565b60008160001c9050919050565b7f416d6f756e742073656e74206c657373207468616e206d696e696d756d000000600082015250565b7f54686973206d6574686f642069732072657374726963746564206a757374206660008201527f6f7220746865206f776e65720000000000000000000000000000000000000000602082015250565b7f416d6f756e742073656e74206d6f7265207468616e206d696e696d756d000000600082015250565b61129781611089565b81146112a257600080fd5b50565b6112ae8161109b565b81146112b957600080fd5b50565b6112c5816110c7565b81146112d057600080fd5b5056fea264697066735822122082df1d423981116bed8730a2e93336ecdc33da4cdef7ea12f02d1ed25143d51864736f6c63430008040033",
  "linkReferences": {},
  "deployedLinkReferences": {}
}