{
    "_format": "hh-sol-artifact-1",
    "contractName": "Lottery",
    "sourceName": "contracts/Lottery.sol",
    "abi": [
        {
            "inputs": [],
            "stateMutability": "nonpayable",
            "type": "constructor"
        },
        {
            "anonymous": false,
            "inputs": [
                {
                    "indexed": false,
                    "internalType": "uint256",
                    "name": "ticketIndex",
                    "type": "uint256"
                },
                {
                    "indexed": false,
                    "internalType": "address",
                    "name": "winner",
                    "type": "address"
                },
                {
                    "indexed": false,
                    "internalType": "uint256",
                    "name": "round",
                    "type": "uint256"
                },
                {
                    "indexed": false,
                    "internalType": "bool",
                    "name": "isGifted",
                    "type": "bool"
                },
                {
                    "indexed": false,
                    "internalType": "uint256",
                    "name": "prizeAmount",
                    "type": "uint256"
                },
                {
                    "indexed": false,
                    "internalType": "uint256",
                    "name": "timestamp",
                    "type": "uint256"
                }
            ],
            "name": "LotteryResult",
            "type": "event"
        },
        {
            "anonymous": false,
            "inputs": [
                {
                    "indexed": false,
                    "internalType": "uint256",
                    "name": "ticketIndex",
                    "type": "uint256"
                },
                {
                    "indexed": false,
                    "internalType": "address",
                    "name": "player",
                    "type": "address"
                },
                {
                    "indexed": false,
                    "internalType": "uint256",
                    "name": "round",
                    "type": "uint256"
                },
                {
                    "indexed": false,
                    "internalType": "bool",
                    "name": "isGifted",
                    "type": "bool"
                },
                {
                    "indexed": false,
                    "internalType": "uint256",
                    "name": "prizeAmount",
                    "type": "uint256"
                }
            ],
            "name": "PlayerJoined",
            "type": "event"
        },
        {
            "inputs": [],
            "name": "currentRound",
            "outputs": [
                {
                    "internalType": "uint256",
                    "name": "",
                    "type": "uint256"
                }
            ],
            "stateMutability": "view",
            "type": "function"
        },
        {
            "inputs": [],
            "name": "getLotteryRoundTime",
            "outputs": [
                {
                    "internalType": "uint256",
                    "name": "",
                    "type": "uint256"
                }
            ],
            "stateMutability": "view",
            "type": "function"
        },
        {
            "inputs": [],
            "name": "getMinRoundPlayers",
            "outputs": [
                {
                    "internalType": "uint256",
                    "name": "",
                    "type": "uint256"
                }
            ],
            "stateMutability": "view",
            "type": "function"
        },
        {
            "inputs": [
                {
                    "internalType": "address",
                    "name": "_recipient",
                    "type": "address"
                }
            ],
            "name": "giftTicket",
            "outputs": [],
            "stateMutability": "payable",
            "type": "function"
        },
        {
            "inputs": [
                {
                    "internalType": "uint256",
                    "name": "",
                    "type": "uint256"
                }
            ],
            "name": "isGift",
            "outputs": [
                {
                    "internalType": "bool",
                    "name": "",
                    "type": "bool"
                }
            ],
            "stateMutability": "view",
            "type": "function"
        },
        {
            "inputs": [],
            "name": "joinLottery",
            "outputs": [],
            "stateMutability": "payable",
            "type": "function"
        },
        {
            "inputs": [],
            "name": "lastTime",
            "outputs": [
                {
                    "internalType": "uint256",
                    "name": "",
                    "type": "uint256"
                }
            ],
            "stateMutability": "view",
            "type": "function"
        },
        {
            "inputs": [],
            "name": "owner",
            "outputs": [
                {
                    "internalType": "address",
                    "name": "",
                    "type": "address"
                }
            ],
            "stateMutability": "view",
            "type": "function"
        },
        {
            "inputs": [
                {
                    "internalType": "uint256",
                    "name": "",
                    "type": "uint256"
                }
            ],
            "name": "players",
            "outputs": [
                {
                    "internalType": "address",
                    "name": "",
                    "type": "address"
                }
            ],
            "stateMutability": "view",
            "type": "function"
        },
        {
            "inputs": [],
            "name": "prizeAmount",
            "outputs": [
                {
                    "internalType": "uint256",
                    "name": "",
                    "type": "uint256"
                }
            ],
            "stateMutability": "view",
            "type": "function"
        },
        {
            "inputs": [],
            "name": "ticketPrice",
            "outputs": [
                {
                    "internalType": "uint256",
                    "name": "",
                    "type": "uint256"
                }
            ],
            "stateMutability": "view",
            "type": "function"
        },
        {
            "inputs": [
                {
                    "internalType": "uint256",
                    "name": "",
                    "type": "uint256"
                }
            ],
            "name": "winners",
            "outputs": [
                {
                    "internalType": "address",
                    "name": "",
                    "type": "address"
                }
            ],
            "stateMutability": "view",
            "type": "function"
        }
    ],
    "bytecode": "0x608060405234801561001057600080fd5b5033600960006101000a81548173ffffffffffffffffffffffffffffffffffffffff021916908373ffffffffffffffffffffffffffffffffffffffff1602179055504260038190555060016006819055506001600481905550600560078190555060056008819055506110bc806100886000396000f3fe6080604052600436106100a75760003560e01c80638da5cb5b116100645780638da5cb5b1461019f57806393e9a084146101ca578063a2fb1175146101f5578063c45a92e214610232578063f71d96cb1461025d578063f9ec27b01461029a576100a7565b80630c6131b4146100ac5780631209b1f6146100d75780636c77f9891461010257806376910c5e1461010c578063785fa627146101495780638a19c8bc14610174575b600080fd5b3480156100b857600080fd5b506100c16102b6565b6040516100ce9190610c91565b60405180910390f35b3480156100e357600080fd5b506100ec610350565b6040516100f99190610c91565b60405180910390f35b61010a610356565b005b34801561011857600080fd5b50610133600480360381019061012e9190610a60565b6103a6565b6040516101409190610c16565b60405180910390f35b34801561015557600080fd5b5061015e6103da565b60405161016b9190610c91565b60405180910390f35b34801561018057600080fd5b506101896103e0565b6040516101969190610c91565b60405180910390f35b3480156101ab57600080fd5b506101b46103e6565b6040516101c19190610bfb565b60405180910390f35b3480156101d657600080fd5b506101df61040c565b6040516101ec9190610c91565b60405180910390f35b34801561020157600080fd5b5061021c60048036038101906102179190610a60565b610412565b6040516102299190610bfb565b60405180910390f35b34801561023e57600080fd5b50610247610451565b6040516102549190610c91565b60405180910390f35b34801561026957600080fd5b50610284600480360381019061027f9190610a60565b6104eb565b6040516102919190610bfb565b60405180910390f35b6102b460048036038101906102af9190610a37565b61052a565b005b6000600960009054906101000a900473ffffffffffffffffffffffffffffffffffffffff1673ffffffffffffffffffffffffffffffffffffffff163373ffffffffffffffffffffffffffffffffffffffff1614610348576040517f08c379a000000000000000000000000000000000000000000000000000000000815260040161033f90610c51565b60405180910390fd5b600854905090565b60045481565b6001600090806001815401808255809150506001900390600052602060002090602091828204019190069091909190916101000a81548160ff0219169083151502179055506103a433610579565b565b600181815481106103b657600080fd5b9060005260206000209060209182820401919006915054906101000a900460ff1681565b60055481565b60065481565b600960009054906101000a900473ffffffffffffffffffffffffffffffffffffffff1681565b60035481565b6002818154811061042257600080fd5b906000526020600020016000915054906101000a900473ffffffffffffffffffffffffffffffffffffffff1681565b6000600960009054906101000a900473ffffffffffffffffffffffffffffffffffffffff1673ffffffffffffffffffffffffffffffffffffffff163373ffffffffffffffffffffffffffffffffffffffff16146104e3576040517f08c379a00000000000000000000000000000000000000000000000000000000081526004016104da90610c51565b60405180910390fd5b600754905090565b600081815481106104fb57600080fd5b906000526020600020016000915054906101000a900473ffffffffffffffffffffffffffffffffffffffff1681565b600180806001815401808255809150506001900390600052602060002090602091828204019190069091909190916101000a81548160ff02191690831515021790555061057681610579565b50565b6004543410156105be576040517f08c379a00000000000000000000000000000000000000000000000000000000081526004016105b590610c31565b60405180910390fd5b600454341115610603576040517f08c379a00000000000000000000000000000000000000000000000000000000081526004016105fa90610c71565b60405180910390fd5b6000819080600181540180825580915050600190039060005260206000200160009091909190916101000a81548173ffffffffffffffffffffffffffffffffffffffff021916908373ffffffffffffffffffffffffffffffffffffffff160217905550476005819055507ff9e7a9da4f9a12377c11f3eb04adcdd6b78c503c781f6ae43f7d3553e22987bf60016000805490506106a09190610dff565b8260065460018080805490506106b69190610dff565b815481106106ed577f4e487b7100000000000000000000000000000000000000000000000000000000600052603260045260246000fd5b90600052602060002090602091828204019190069054906101000a900460ff16600554604051610721959493929190610cac565b60405180910390a16007546003546107399190610da9565b421015801561074f575060085460008054905010155b1561075d5761075c610760565b5b50565b6000808054905061076f610971565b6107799190610f08565b905060008082815481106107b6577f4e487b7100000000000000000000000000000000000000000000000000000000600052603260045260246000fd5b9060005260206000200160009054906101000a900473ffffffffffffffffffffffffffffffffffffffff1690508073ffffffffffffffffffffffffffffffffffffffff166108fc479081150290604051600060405180830381858888f19350505050158015610829573d6000803e3d6000fd5b507fa3ef497e45543d9c85ed837857316dfd5ad8b178faed7a9b7a1e947669d1bf6182826006546001868154811061088a577f4e487b7100000000000000000000000000000000000000000000000000000000600052603260045260246000fd5b90600052602060002090602091828204019190069054906101000a900460ff16600554426040516108c096959493929190610cff565b60405180910390a16002819080600181540180825580915050600190039060005260206000200160009091909190916101000a81548173ffffffffffffffffffffffffffffffffffffffff021916908373ffffffffffffffffffffffffffffffffffffffff1602179055506006600081548092919061093e90610eb5565b91905055504260038190555060008061095791906109a7565b6001600061096591906109c8565b60006005819055505050565b60004342600060405160200161098993929190610bc2565b6040516020818303038152906040528051906020012060001c905090565b50805460008255906000526020600020908101906109c591906109f0565b50565b50805460008255601f0160209004906000526020600020908101906109ed91906109f0565b50565b5b80821115610a095760008160009055506001016109f1565b5090565b600081359050610a1c81611058565b92915050565b600081359050610a318161106f565b92915050565b600060208284031215610a4957600080fd5b6000610a5784828501610a0d565b91505092915050565b600060208284031215610a7257600080fd5b6000610a8084828501610a22565b91505092915050565b6000610a958383610ab0565b60208301905092915050565b610aaa81610e53565b82525050565b610ab981610e53565b82525050565b6000610aca82610d75565b610ad48185610d8d565b9350610adf83610d60565b8060005b83811015610b1757610af482610f97565b610afe8882610a89565b9750610b0983610d80565b925050600181019050610ae3565b5085935050505092915050565b610b2d81610e65565b82525050565b6000610b40601d83610d98565b9150610b4b82610fb7565b602082019050919050565b6000610b63602c83610d98565b9150610b6e82610fe0565b604082019050919050565b6000610b86601d83610d98565b9150610b918261102f565b602082019050919050565b610ba581610e91565b82525050565b610bbc610bb782610e91565b610efe565b82525050565b6000610bce8286610bab565b602082019150610bde8285610bab565b602082019150610bee8284610abf565b9150819050949350505050565b6000602082019050610c106000830184610aa1565b92915050565b6000602082019050610c2b6000830184610b24565b92915050565b60006020820190508181036000830152610c4a81610b33565b9050919050565b60006020820190508181036000830152610c6a81610b56565b9050919050565b60006020820190508181036000830152610c8a81610b79565b9050919050565b6000602082019050610ca66000830184610b9c565b92915050565b600060a082019050610cc16000830188610b9c565b610cce6020830187610aa1565b610cdb6040830186610b9c565b610ce86060830185610b24565b610cf56080830184610b9c565b9695505050505050565b600060c082019050610d146000830189610b9c565b610d216020830188610aa1565b610d2e6040830187610b9c565b610d3b6060830186610b24565b610d486080830185610b9c565b610d5560a0830184610b9c565b979650505050505050565b60008190508160005260206000209050919050565b600081549050919050565b6000600182019050919050565b600081905092915050565b600082825260208201905092915050565b6000610db482610e91565b9150610dbf83610e91565b9250827fffffffffffffffffffffffffffffffffffffffffffffffffffffffffffffffff03821115610df457610df3610f39565b5b828201905092915050565b6000610e0a82610e91565b9150610e1583610e91565b925082821015610e2857610e27610f39565b5b828203905092915050565b600073ffffffffffffffffffffffffffffffffffffffff82169050919050565b6000610e5e82610e71565b9050919050565b60008115159050919050565b600073ffffffffffffffffffffffffffffffffffffffff82169050919050565b6000819050919050565b6000610eae610ea983610faa565b610e33565b9050919050565b6000610ec082610e91565b91507fffffffffffffffffffffffffffffffffffffffffffffffffffffffffffffffff821415610ef357610ef2610f39565b5b600182019050919050565b6000819050919050565b6000610f1382610e91565b9150610f1e83610e91565b925082610f2e57610f2d610f68565b5b828206905092915050565b7f4e487b7100000000000000000000000000000000000000000000000000000000600052601160045260246000fd5b7f4e487b7100000000000000000000000000000000000000000000000000000000600052601260045260246000fd5b6000610fa38254610e9b565b9050919050565b60008160001c9050919050565b7f416d6f756e742073656e74206c657373207468616e206d696e696d756d000000600082015250565b7f54686973206d6574686f642069732072657374726963746564206a757374206660008201527f6f7220746865206f776e65720000000000000000000000000000000000000000602082015250565b7f416d6f756e742073656e74206d6f7265207468616e206d696e696d756d000000600082015250565b61106181610e53565b811461106c57600080fd5b50565b61107881610e91565b811461108357600080fd5b5056fea26469706673582212208ee1ee6a3327415a8343cd50efd84c1c99cc4c90cae89ac2c8f75bd7d464d57f64736f6c63430008040033",
    "linkReferences": {},
    "deployedLinkReferences": {}
}